{
  "_format": "hh-sol-artifact-1",
  "contractName": "NFT",
  "sourceName": "src/contracts/NFT.sol",
  "abi": [
    {
      "inputs": [
        {
          "internalType": "string",
          "name": "_name",
          "type": "string"
        },
        {
          "internalType": "string",
          "name": "_symbol",
          "type": "string"
        },
        {
          "internalType": "string",
          "name": "_initBaseURI",
          "type": "string"
        }
      ],
      "stateMutability": "nonpayable",
      "type": "constructor"
    },
    {
      "anonymous": false,
      "inputs": [
        {
          "indexed": true,
          "internalType": "address",
          "name": "owner",
          "type": "address"
        },
        {
          "indexed": true,
          "internalType": "address",
          "name": "approved",
          "type": "address"
        },
        {
          "indexed": true,
          "internalType": "uint256",
          "name": "tokenId",
          "type": "uint256"
        }
      ],
      "name": "Approval",
      "type": "event"
    },
    {
      "anonymous": false,
      "inputs": [
        {
          "indexed": true,
          "internalType": "address",
          "name": "owner",
          "type": "address"
        },
        {
          "indexed": true,
          "internalType": "address",
          "name": "operator",
          "type": "address"
        },
        {
          "indexed": false,
          "internalType": "bool",
          "name": "approved",
          "type": "bool"
        }
      ],
      "name": "ApprovalForAll",
      "type": "event"
    },
    {
      "anonymous": false,
      "inputs": [
        {
          "indexed": true,
          "internalType": "address",
          "name": "previousOwner",
          "type": "address"
        },
        {
          "indexed": true,
          "internalType": "address",
          "name": "newOwner",
          "type": "address"
        }
      ],
      "name": "OwnershipTransferred",
      "type": "event"
    },
    {
      "anonymous": false,
      "inputs": [
        {
          "indexed": false,
          "internalType": "uint256",
          "name": "id",
          "type": "uint256"
        },
        {
          "indexed": true,
          "internalType": "address",
          "name": "buyer",
          "type": "address"
        },
        {
          "indexed": false,
          "internalType": "uint256",
          "name": "cost",
          "type": "uint256"
        },
        {
          "indexed": true,
          "internalType": "string",
          "name": "tokenURI",
          "type": "string"
        },
        {
          "indexed": false,
          "internalType": "uint256",
          "name": "timestamp",
          "type": "uint256"
        }
      ],
      "name": "Sale",
      "type": "event"
    },
    {
      "anonymous": false,
      "inputs": [
        {
          "indexed": true,
          "internalType": "address",
          "name": "from",
          "type": "address"
        },
        {
          "indexed": true,
          "internalType": "address",
          "name": "to",
          "type": "address"
        },
        {
          "indexed": true,
          "internalType": "uint256",
          "name": "tokenId",
          "type": "uint256"
        }
      ],
      "name": "Transfer",
      "type": "event"
    },
    {
      "inputs": [
        {
          "internalType": "address",
          "name": "to",
          "type": "address"
        },
        {
          "internalType": "uint256",
          "name": "tokenId",
          "type": "uint256"
        }
      ],
      "name": "approve",
      "outputs": [],
      "stateMutability": "nonpayable",
      "type": "function"
    },
    {
      "inputs": [
        {
          "internalType": "address",
          "name": "owner",
          "type": "address"
        }
      ],
      "name": "balanceOf",
      "outputs": [
        {
          "internalType": "uint256",
          "name": "",
          "type": "uint256"
        }
      ],
      "stateMutability": "view",
      "type": "function"
    },
    {
      "inputs": [],
      "name": "baseExtension",
      "outputs": [
        {
          "internalType": "string",
          "name": "",
          "type": "string"
        }
      ],
      "stateMutability": "view",
      "type": "function"
    },
    {
      "inputs": [],
      "name": "baseImage",
      "outputs": [
        {
          "internalType": "string",
          "name": "",
          "type": "string"
        }
      ],
      "stateMutability": "view",
      "type": "function"
    },
    {
      "inputs": [],
      "name": "cost",
      "outputs": [
        {
          "internalType": "uint256",
          "name": "",
          "type": "uint256"
        }
      ],
      "stateMutability": "view",
      "type": "function"
    },
    {
      "inputs": [],
      "name": "getAllNFTs",
      "outputs": [
        {
          "components": [
            {
              "internalType": "uint256",
              "name": "id",
              "type": "uint256"
            },
            {
              "internalType": "address",
              "name": "buyer",
              "type": "address"
            },
            {
              "internalType": "uint256",
              "name": "cose",
              "type": "uint256"
            },
            {
              "internalType": "string",
              "name": "imageURL",
              "type": "string"
            },
            {
              "internalType": "uint256",
              "name": "timestamp",
              "type": "uint256"
            }
          ],
          "internalType": "struct NFT.SaleStruct[]",
          "name": "",
          "type": "tuple[]"
        }
      ],
      "stateMutability": "view",
      "type": "function"
    },
    {
      "inputs": [
        {
          "internalType": "uint256",
          "name": "tokenId",
          "type": "uint256"
        }
      ],
      "name": "getAnNFTs",
      "outputs": [
        {
          "components": [
            {
              "internalType": "uint256",
              "name": "id",
              "type": "uint256"
            },
            {
              "internalType": "address",
              "name": "buyer",
              "type": "address"
            },
            {
              "internalType": "uint256",
              "name": "cose",
              "type": "uint256"
            },
            {
              "internalType": "string",
              "name": "imageURL",
              "type": "string"
            },
            {
              "internalType": "uint256",
              "name": "timestamp",
              "type": "uint256"
            }
          ],
          "internalType": "struct NFT.SaleStruct",
          "name": "",
          "type": "tuple"
        }
      ],
      "stateMutability": "view",
      "type": "function"
    },
    {
      "inputs": [
        {
          "internalType": "uint256",
          "name": "tokenId",
          "type": "uint256"
        }
      ],
      "name": "getApproved",
      "outputs": [
        {
          "internalType": "address",
          "name": "",
          "type": "address"
        }
      ],
      "stateMutability": "view",
      "type": "function"
    },
    {
      "inputs": [
        {
          "internalType": "address",
          "name": "owner",
          "type": "address"
        },
        {
          "internalType": "address",
          "name": "operator",
          "type": "address"
        }
      ],
      "name": "isApprovedForAll",
      "outputs": [
        {
          "internalType": "bool",
          "name": "",
          "type": "bool"
        }
      ],
      "stateMutability": "view",
      "type": "function"
    },
    {
      "inputs": [],
      "name": "maxSupply",
      "outputs": [
        {
          "internalType": "uint256",
          "name": "",
          "type": "uint256"
        }
      ],
      "stateMutability": "view",
      "type": "function"
    },
    {
      "inputs": [],
      "name": "name",
      "outputs": [
        {
          "internalType": "string",
          "name": "",
          "type": "string"
        }
      ],
      "stateMutability": "view",
      "type": "function"
    },
    {
      "inputs": [],
      "name": "owner",
      "outputs": [
        {
          "internalType": "address",
          "name": "",
          "type": "address"
        }
      ],
      "stateMutability": "view",
      "type": "function"
    },
    {
      "inputs": [
        {
          "internalType": "uint256",
          "name": "tokenId",
          "type": "uint256"
        }
      ],
      "name": "ownerOf",
      "outputs": [
        {
          "internalType": "address",
          "name": "",
          "type": "address"
        }
      ],
      "stateMutability": "view",
      "type": "function"
    },
    {
      "inputs": [],
      "name": "paused",
      "outputs": [
        {
          "internalType": "bool",
          "name": "",
          "type": "bool"
        }
      ],
      "stateMutability": "view",
      "type": "function"
    },
    {
      "inputs": [
        {
          "internalType": "address",
          "name": "to",
          "type": "address"
        },
        {
          "internalType": "uint256",
          "name": "amount",
          "type": "uint256"
        }
      ],
      "name": "payTo",
      "outputs": [],
      "stateMutability": "nonpayable",
      "type": "function"
    },
    {
      "inputs": [],
      "name": "payToMint",
      "outputs": [],
      "stateMutability": "payable",
      "type": "function"
    },
    {
      "inputs": [],
      "name": "renounceOwnership",
      "outputs": [],
      "stateMutability": "nonpayable",
      "type": "function"
    },
    {
      "inputs": [
        {
          "internalType": "address",
          "name": "from",
          "type": "address"
        },
        {
          "internalType": "address",
          "name": "to",
          "type": "address"
        },
        {
          "internalType": "uint256",
          "name": "tokenId",
          "type": "uint256"
        }
      ],
      "name": "safeTransferFrom",
      "outputs": [],
      "stateMutability": "nonpayable",
      "type": "function"
    },
    {
      "inputs": [
        {
          "internalType": "address",
          "name": "from",
          "type": "address"
        },
        {
          "internalType": "address",
          "name": "to",
          "type": "address"
        },
        {
          "internalType": "uint256",
          "name": "tokenId",
          "type": "uint256"
        },
        {
          "internalType": "bytes",
          "name": "data",
          "type": "bytes"
        }
      ],
      "name": "safeTransferFrom",
      "outputs": [],
      "stateMutability": "nonpayable",
      "type": "function"
    },
    {
      "inputs": [
        {
          "internalType": "address",
          "name": "operator",
          "type": "address"
        },
        {
          "internalType": "bool",
          "name": "approved",
          "type": "bool"
        }
      ],
      "name": "setApprovalForAll",
      "outputs": [],
      "stateMutability": "nonpayable",
      "type": "function"
    },
    {
      "inputs": [
        {
          "internalType": "string",
          "name": "_newBaseURI",
          "type": "string"
        }
      ],
      "name": "setBaseURI",
      "outputs": [],
      "stateMutability": "nonpayable",
      "type": "function"
    },
    {
      "inputs": [
        {
          "internalType": "bool",
          "name": "_state",
          "type": "bool"
        }
      ],
      "name": "setPause",
      "outputs": [],
      "stateMutability": "nonpayable",
      "type": "function"
    },
    {
      "inputs": [
        {
          "internalType": "bytes4",
          "name": "interfaceId",
          "type": "bytes4"
        }
      ],
      "name": "supportsInterface",
      "outputs": [
        {
          "internalType": "bool",
          "name": "",
          "type": "bool"
        }
      ],
      "stateMutability": "view",
      "type": "function"
    },
    {
      "inputs": [],
      "name": "symbol",
      "outputs": [
        {
          "internalType": "string",
          "name": "",
          "type": "string"
        }
      ],
      "stateMutability": "view",
      "type": "function"
    },
    {
      "inputs": [
        {
          "internalType": "uint256",
          "name": "index",
          "type": "uint256"
        }
      ],
      "name": "tokenByIndex",
      "outputs": [
        {
          "internalType": "uint256",
          "name": "",
          "type": "uint256"
        }
      ],
      "stateMutability": "view",
      "type": "function"
    },
    {
      "inputs": [
        {
          "internalType": "address",
          "name": "owner",
          "type": "address"
        },
        {
          "internalType": "uint256",
          "name": "index",
          "type": "uint256"
        }
      ],
      "name": "tokenOfOwnerByIndex",
      "outputs": [
        {
          "internalType": "uint256",
          "name": "",
          "type": "uint256"
        }
      ],
      "stateMutability": "view",
      "type": "function"
    },
    {
      "inputs": [
        {
          "internalType": "uint256",
          "name": "tokenId",
          "type": "uint256"
        }
      ],
      "name": "tokenURI",
      "outputs": [
        {
          "internalType": "string",
          "name": "",
          "type": "string"
        }
      ],
      "stateMutability": "view",
      "type": "function"
    },
    {
      "inputs": [],
      "name": "totalSupply",
      "outputs": [
        {
          "internalType": "uint256",
          "name": "",
          "type": "uint256"
        }
      ],
      "stateMutability": "view",
      "type": "function"
    },
    {
      "inputs": [
        {
          "internalType": "address",
          "name": "from",
          "type": "address"
        },
        {
          "internalType": "address",
          "name": "to",
          "type": "address"
        },
        {
          "internalType": "uint256",
          "name": "tokenId",
          "type": "uint256"
        }
      ],
      "name": "transferFrom",
      "outputs": [],
      "stateMutability": "nonpayable",
      "type": "function"
    },
    {
      "inputs": [
        {
          "internalType": "address",
          "name": "newOwner",
          "type": "address"
        }
      ],
      "name": "transferOwnership",
      "outputs": [],
      "stateMutability": "nonpayable",
      "type": "function"
    }
  ],
  "bytecode": "0x60c0604052600560808190526402e776562760dc1b60a09081526200002891600c9190620001cb565b5060408051808201909152600580825264173539b7b760d91b60209092019182526200005791600d91620001cb565b5066038d7ea4c68000600e556063600f556010805460ff191690553480156200007f57600080fd5b50604051620029e2380380620029e2833981016040819052620000a2916200033e565b8282620000af33620000f7565b8151620000c4906001906020850190620001cb565b508051620000da906002906020840190620001cb565b505050620000ee816200014760201b60201c565b5050506200040c565b600080546001600160a01b038381166001600160a01b0319831681178455604051919092169283917f8be0079c531659141344cd1fd0a4f28419497f9722a3daafe3b4186f6b6457e09190a35050565b620001516200016a565b80516200016690600b906020840190620001cb565b5050565b6000546001600160a01b03163314620001c95760405162461bcd60e51b815260206004820181905260248201527f4f776e61626c653a2063616c6c6572206973206e6f7420746865206f776e6572604482015260640160405180910390fd5b565b828054620001d990620003cf565b90600052602060002090601f016020900481019282620001fd576000855562000248565b82601f106200021857805160ff191683800117855562000248565b8280016001018555821562000248579182015b82811115620002485782518255916020019190600101906200022b565b50620002569291506200025a565b5090565b5b808211156200025657600081556001016200025b565b634e487b7160e01b600052604160045260246000fd5b600082601f8301126200029957600080fd5b81516001600160401b0380821115620002b657620002b662000271565b604051601f8301601f19908116603f01168101908282118183101715620002e157620002e162000271565b81604052838152602092508683858801011115620002fe57600080fd5b600091505b8382101562000322578582018301518183018401529082019062000303565b83821115620003345760008385830101525b9695505050505050565b6000806000606084860312156200035457600080fd5b83516001600160401b03808211156200036c57600080fd5b6200037a8783880162000287565b945060208601519150808211156200039157600080fd5b6200039f8783880162000287565b93506040860151915080821115620003b657600080fd5b50620003c58682870162000287565b9150509250925092565b600181811c90821680620003e457607f821691505b602082108114156200040657634e487b7160e01b600052602260045260246000fd5b50919050565b6125c6806200041c6000396000f3fe6080604052600436106101cd5760003560e01c806368ef9d3c116100f7578063b88d4fde11610095578063d5abeb0111610064578063d5abeb01146104fd578063e0391b0914610513578063e985e9c514610535578063f2fde38b1461057e57600080fd5b8063b88d4fde14610488578063bedb86fb146104a8578063c6682862146104c8578063c87b56dd146104dd57600080fd5b80637bf08621116100d15780637bf08621146104155780638da5cb5b1461043557806395d89b4114610453578063a22cb4651461046857600080fd5b806368ef9d3c146103b357806370a08231146103e0578063715018a61461040057600080fd5b806323b872dd1161016f578063509c71801161013e578063509c71801461035157806355f804b3146103595780635c975abb146103795780636352211e1461039357600080fd5b806323b872dd146102d15780632f745c59146102f157806342842e0e146103115780634f6ccce71461033157600080fd5b8063081812fc116101ab578063081812fc1461023e578063095ea7b31461027657806313faede61461029857806318160ddd146102bc57600080fd5b806301ffc9a7146101d257806303b0f38d1461020757806306fdde0314610229575b600080fd5b3480156101de57600080fd5b506101f26101ed366004611eeb565b61059e565b60405190151581526020015b60405180910390f35b34801561021357600080fd5b5061021c6105c9565b6040516101fe9190611f60565b34801561023557600080fd5b5061021c610657565b34801561024a57600080fd5b5061025e610259366004611f73565b6106e9565b6040516001600160a01b0390911681526020016101fe565b34801561028257600080fd5b50610296610291366004611fa8565b610710565b005b3480156102a457600080fd5b506102ae600e5481565b6040519081526020016101fe565b3480156102c857600080fd5b506009546102ae565b3480156102dd57600080fd5b506102966102ec366004611fd2565b61082b565b3480156102fd57600080fd5b506102ae61030c366004611fa8565b61085c565b34801561031d57600080fd5b5061029661032c366004611fd2565b6108f2565b34801561033d57600080fd5b506102ae61034c366004611f73565b61090d565b6102966109a0565b34801561036557600080fd5b5061029661037436600461209a565b610c3e565b34801561038557600080fd5b506010546101f29060ff1681565b34801561039f57600080fd5b5061025e6103ae366004611f73565b610c5d565b3480156103bf57600080fd5b506103d36103ce366004611f73565b610cbd565b6040516101fe9190612132565b3480156103ec57600080fd5b506102ae6103fb366004612145565b610e14565b34801561040c57600080fd5b50610296610e9a565b34801561042157600080fd5b50610296610430366004611fa8565b610eae565b34801561044157600080fd5b506000546001600160a01b031661025e565b34801561045f57600080fd5b5061021c610f16565b34801561047457600080fd5b50610296610483366004612170565b610f25565b34801561049457600080fd5b506102966104a33660046121a3565b610f30565b3480156104b457600080fd5b506102966104c336600461221f565b610f68565b3480156104d457600080fd5b5061021c610f83565b3480156104e957600080fd5b5061021c6104f8366004611f73565b610f90565b34801561050957600080fd5b506102ae600f5481565b34801561051f57600080fd5b5061052861106e565b6040516101fe919061223a565b34801561054157600080fd5b506101f261055036600461229c565b6001600160a01b03918216600090815260066020908152604080832093909416825291909152205460ff1690565b34801561058a57600080fd5b50610296610599366004612145565b611194565b60006001600160e01b0319821663780e9d6360e01b14806105c357506105c38261120d565b92915050565b600c80546105d6906122c6565b80601f0160208091040260200160405190810160405280929190818152602001828054610602906122c6565b801561064f5780601f106106245761010080835404028352916020019161064f565b820191906000526020600020905b81548152906001019060200180831161063257829003601f168201915b505050505081565b606060018054610666906122c6565b80601f0160208091040260200160405190810160405280929190818152602001828054610692906122c6565b80156106df5780601f106106b4576101008083540402835291602001916106df565b820191906000526020600020905b8154815290600101906020018083116106c257829003601f168201915b5050505050905090565b60006106f48261125d565b506000908152600560205260409020546001600160a01b031690565b600061071b82610c5d565b9050806001600160a01b0316836001600160a01b0316141561078e5760405162461bcd60e51b815260206004820152602160248201527f4552433732313a20617070726f76616c20746f2063757272656e74206f776e656044820152603960f91b60648201526084015b60405180910390fd5b336001600160a01b03821614806107aa57506107aa8133610550565b61081c5760405162461bcd60e51b815260206004820152603d60248201527f4552433732313a20617070726f76652063616c6c6572206973206e6f7420746f60448201527f6b656e206f776e6572206f7220617070726f76656420666f7220616c6c0000006064820152608401610785565b61082683836112bc565b505050565b610835338261132a565b6108515760405162461bcd60e51b815260040161078590612301565b6108268383836113a9565b600061086783610e14565b82106108c95760405162461bcd60e51b815260206004820152602b60248201527f455243373231456e756d657261626c653a206f776e657220696e646578206f7560448201526a74206f6620626f756e647360a81b6064820152608401610785565b506001600160a01b03919091166000908152600760209081526040808320938352929052205490565b61082683838360405180602001604052806000815250610f30565b600061091860095490565b821061097b5760405162461bcd60e51b815260206004820152602c60248201527f455243373231456e756d657261626c653a20676c6f62616c20696e646578206f60448201526b7574206f6620626f756e647360a01b6064820152608401610785565b6009828154811061098e5761098e61234e565b90600052602060002001549050919050565b60006109ab60095490565b60105490915060ff1615610a015760405162461bcd60e51b815260206004820152601860248201527f4e4654277320756e646572206d61696e74656e616e63652100000000000000006044820152606401610785565b600f54811115610a535760405162461bcd60e51b815260206004820181905260248201527f536f72727920616c6c204e465427732068617665206265656e206d696e7465646044820152606401610785565b60003411610aa35760405162461bcd60e51b815260206004820152601960248201527f457468657220746f6f206c6f7720666f72206d696e74696e67000000000000006044820152606401610785565b6000546001600160a01b03163314610afe57600e54341015610afe5760405162461bcd60e51b8152602060048201526014602482015273506c6561736520746f702075702065746865727360601b6044820152606401610785565b610b1233610b0d83600161237a565b61151a565b60116040518060a00160405280836001610b2c919061237a565b8152336020820152346040820152606001610b50610b4b85600161237a565b611534565b81524260209182015282546001808201855560009485529382902083516005909202019081558282015193810180546001600160a01b0319166001600160a01b03909516949094179093556040820151600284015560608201518051929392610bbf9260038501920190611e3c565b5060809190910151600490910155610bdb6104f882600161237a565b604051610be89190612392565b604051908190039020337fb9508407a6eccb191d8da3286f4173697cf95604e9ea192fe5ab7c862b5221f6610c1e84600161237a565b60408051918252346020830152429082015260600160405180910390a350565b610c4661157e565b8051610c5990600b906020840190611e3c565b5050565b6000818152600360205260408120546001600160a01b0316806105c35760405162461bcd60e51b8152602060048201526018602482015277115490cdcc8c4e881a5b9d985b1a59081d1bdad95b88125160421b6044820152606401610785565b610cf86040518060a001604052806000815260200160006001600160a01b031681526020016000815260200160608152602001600081525090565b6011610d056001846123ae565b81548110610d1557610d1561234e565b90600052602060002090600502016040518060a0016040529081600082015481526020016001820160009054906101000a90046001600160a01b03166001600160a01b03166001600160a01b0316815260200160028201548152602001600382018054610d81906122c6565b80601f0160208091040260200160405190810160405280929190818152602001828054610dad906122c6565b8015610dfa5780601f10610dcf57610100808354040283529160200191610dfa565b820191906000526020600020905b815481529060010190602001808311610ddd57829003601f168201915b505050505081526020016004820154815250509050919050565b60006001600160a01b038216610e7e5760405162461bcd60e51b815260206004820152602960248201527f4552433732313a2061646472657373207a65726f206973206e6f7420612076616044820152683634b21037bbb732b960b91b6064820152608401610785565b506001600160a01b031660009081526004602052604090205490565b610ea261157e565b610eac60006115d8565b565b610eb661157e565b6000826001600160a01b03168260405160006040518083038185875af1925050503d8060008114610f03576040519150601f19603f3d011682016040523d82523d6000602084013e610f08565b606091505b505090508061082657600080fd5b606060028054610666906122c6565b610c59338383611628565b610f3a338361132a565b610f565760405162461bcd60e51b815260040161078590612301565b610f62848484846116f7565b50505050565b610f7061157e565b6010805460ff1916911515919091179055565b600d80546105d6906122c6565b6000818152600360205260409020546060906001600160a01b031661100f5760405162461bcd60e51b815260206004820152602f60248201527f4552433732314d657461646174613a2055524920717565727920666f72206e6f60448201526e3732bc34b9ba32b73a103a37b5b2b760891b6064820152608401610785565b600061101961172a565b905060008151116110395760405180602001604052806000815250611067565b8061104384611739565b600d604051602001611057939291906123c5565b6040516020818303038152906040525b9392505050565b60606011805480602002602001604051908101604052809291908181526020016000905b8282101561118b5760008481526020908190206040805160a081018252600586029092018054835260018101546001600160a01b0316938301939093526002830154908201526003820180549192916060840191906110f0906122c6565b80601f016020809104026020016040519081016040528092919081815260200182805461111c906122c6565b80156111695780601f1061113e57610100808354040283529160200191611169565b820191906000526020600020905b81548152906001019060200180831161114c57829003601f168201915b5050505050815260200160048201548152505081526020019060010190611092565b50505050905090565b61119c61157e565b6001600160a01b0381166112015760405162461bcd60e51b815260206004820152602660248201527f4f776e61626c653a206e6577206f776e657220697320746865207a65726f206160448201526564647265737360d01b6064820152608401610785565b61120a816115d8565b50565b60006001600160e01b031982166380ac58cd60e01b148061123e57506001600160e01b03198216635b5e139f60e01b145b806105c357506301ffc9a760e01b6001600160e01b03198316146105c3565b6000818152600360205260409020546001600160a01b031661120a5760405162461bcd60e51b8152602060048201526018602482015277115490cdcc8c4e881a5b9d985b1a59081d1bdad95b88125160421b6044820152606401610785565b600081815260056020526040902080546001600160a01b0319166001600160a01b03841690811790915581906112f182610c5d565b6001600160a01b03167f8c5be1e5ebec7d5bd14f71427d1e84f3dd0314c0f7b2291e5b200ac8c7c3b92560405160405180910390a45050565b60008061133683610c5d565b9050806001600160a01b0316846001600160a01b0316148061137d57506001600160a01b0380821660009081526006602090815260408083209388168352929052205460ff165b806113a15750836001600160a01b0316611396846106e9565b6001600160a01b0316145b949350505050565b826001600160a01b03166113bc82610c5d565b6001600160a01b0316146113e25760405162461bcd60e51b815260040161078590612489565b6001600160a01b0382166114445760405162461bcd60e51b8152602060048201526024808201527f4552433732313a207472616e7366657220746f20746865207a65726f206164646044820152637265737360e01b6064820152608401610785565b61145183838360016117d6565b826001600160a01b031661146482610c5d565b6001600160a01b03161461148a5760405162461bcd60e51b815260040161078590612489565b600081815260056020908152604080832080546001600160a01b03199081169091556001600160a01b0387811680865260048552838620805460001901905590871680865283862080546001019055868652600390945282852080549092168417909155905184937fddf252ad1be2c89b69c2b068fc378daa952ba7f163c4a11628f55a4df523b3ef91a4505050565b610c5982826040518060200160405280600081525061190a565b6060600061154061172a565b905060008151116115605760405180602001604052806000815250611067565b8061156a84611739565b600c604051602001611057939291906123c5565b6000546001600160a01b03163314610eac5760405162461bcd60e51b815260206004820181905260248201527f4f776e61626c653a2063616c6c6572206973206e6f7420746865206f776e65726044820152606401610785565b600080546001600160a01b038381166001600160a01b0319831681178455604051919092169283917f8be0079c531659141344cd1fd0a4f28419497f9722a3daafe3b4186f6b6457e09190a35050565b816001600160a01b0316836001600160a01b0316141561168a5760405162461bcd60e51b815260206004820152601960248201527f4552433732313a20617070726f766520746f2063616c6c6572000000000000006044820152606401610785565b6001600160a01b03838116600081815260066020908152604080832094871680845294825291829020805460ff191686151590811790915591519182527f17307eab39ab6107e8899845ad3d59bd9653f200f220920489ca2b5937696c31910160405180910390a3505050565b6117028484846113a9565b61170e8484848461193d565b610f625760405162461bcd60e51b8152600401610785906124ce565b6060600b8054610666906122c6565b6060600061174683611a3b565b600101905060008167ffffffffffffffff8111156117665761176661200e565b6040519080825280601f01601f191660200182016040528015611790576020820181803683370190505b5090508181016020015b600019016f181899199a1a9b1b9c1cb0b131b232b360811b600a86061a8153600a85049450846117c9576117ce565b61179a565b509392505050565b60018111156118455760405162461bcd60e51b815260206004820152603560248201527f455243373231456e756d657261626c653a20636f6e7365637574697665207472604482015274185b9cd9995c9cc81b9bdd081cdd5c1c1bdc9d1959605a1b6064820152608401610785565b816001600160a01b0385166118a15761189c81600980546000838152600a60205260408120829055600182018355919091527f6e1540171b6c0c960b71a7020d9f60077f6af931a8bbf590da0223dacf75c7af0155565b6118c4565b836001600160a01b0316856001600160a01b0316146118c4576118c48582611b13565b6001600160a01b0384166118e0576118db81611bb0565b611903565b846001600160a01b0316846001600160a01b031614611903576119038482611c5f565b5050505050565b6119148383611ca3565b611921600084848461193d565b6108265760405162461bcd60e51b8152600401610785906124ce565b60006001600160a01b0384163b15611a3057604051630a85bd0160e11b81526001600160a01b0385169063150b7a0290611981903390899088908890600401612520565b6020604051808303816000875af19250505080156119bc575060408051601f3d908101601f191682019092526119b99181019061255d565b60015b611a16573d8080156119ea576040519150601f19603f3d011682016040523d82523d6000602084013e6119ef565b606091505b508051611a0e5760405162461bcd60e51b8152600401610785906124ce565b805181602001fd5b6001600160e01b031916630a85bd0160e11b1490506113a1565b506001949350505050565b60008072184f03e93ff9f4daa797ed6e38ed64bf6a1f0160401b8310611a7a5772184f03e93ff9f4daa797ed6e38ed64bf6a1f0160401b830492506040015b6d04ee2d6d415b85acef81000000008310611aa6576d04ee2d6d415b85acef8100000000830492506020015b662386f26fc100008310611ac457662386f26fc10000830492506010015b6305f5e1008310611adc576305f5e100830492506008015b6127108310611af057612710830492506004015b60648310611b02576064830492506002015b600a83106105c35760010192915050565b60006001611b2084610e14565b611b2a91906123ae565b600083815260086020526040902054909150808214611b7d576001600160a01b03841660009081526007602090815260408083208584528252808320548484528184208190558352600890915290208190555b5060009182526008602090815260408084208490556001600160a01b039094168352600781528383209183525290812055565b600954600090611bc2906001906123ae565b6000838152600a602052604081205460098054939450909284908110611bea57611bea61234e565b906000526020600020015490508060098381548110611c0b57611c0b61234e565b6000918252602080832090910192909255828152600a90915260408082208490558582528120556009805480611c4357611c4361257a565b6001900381819060005260206000200160009055905550505050565b6000611c6a83610e14565b6001600160a01b039093166000908152600760209081526040808320868452825280832085905593825260089052919091209190915550565b6001600160a01b038216611cf95760405162461bcd60e51b815260206004820181905260248201527f4552433732313a206d696e7420746f20746865207a65726f20616464726573736044820152606401610785565b6000818152600360205260409020546001600160a01b031615611d5e5760405162461bcd60e51b815260206004820152601c60248201527f4552433732313a20746f6b656e20616c7265616479206d696e746564000000006044820152606401610785565b611d6c6000838360016117d6565b6000818152600360205260409020546001600160a01b031615611dd15760405162461bcd60e51b815260206004820152601c60248201527f4552433732313a20746f6b656e20616c7265616479206d696e746564000000006044820152606401610785565b6001600160a01b038216600081815260046020908152604080832080546001019055848352600390915280822080546001600160a01b0319168417905551839291907fddf252ad1be2c89b69c2b068fc378daa952ba7f163c4a11628f55a4df523b3ef908290a45050565b828054611e48906122c6565b90600052602060002090601f016020900481019282611e6a5760008555611eb0565b82601f10611e8357805160ff1916838001178555611eb0565b82800160010185558215611eb0579182015b82811115611eb0578251825591602001919060010190611e95565b50611ebc929150611ec0565b5090565b5b80821115611ebc5760008155600101611ec1565b6001600160e01b03198116811461120a57600080fd5b600060208284031215611efd57600080fd5b813561106781611ed5565b60005b83811015611f23578181015183820152602001611f0b565b83811115610f625750506000910152565b60008151808452611f4c816020860160208601611f08565b601f01601f19169290920160200192915050565b6020815260006110676020830184611f34565b600060208284031215611f8557600080fd5b5035919050565b80356001600160a01b0381168114611fa357600080fd5b919050565b60008060408385031215611fbb57600080fd5b611fc483611f8c565b946020939093013593505050565b600080600060608486031215611fe757600080fd5b611ff084611f8c565b9250611ffe60208501611f8c565b9150604084013590509250925092565b634e487b7160e01b600052604160045260246000fd5b600067ffffffffffffffff8084111561203f5761203f61200e565b604051601f8501601f19908116603f011681019082821181831017156120675761206761200e565b8160405280935085815286868601111561208057600080fd5b858560208301376000602087830101525050509392505050565b6000602082840312156120ac57600080fd5b813567ffffffffffffffff8111156120c357600080fd5b8201601f810184136120d457600080fd5b6113a184823560208401612024565b8051825260018060a01b036020820151166020830152604081015160408301526000606082015160a0606085015261211e60a0850182611f34565b608093840151949093019390935250919050565b60208152600061106760208301846120e3565b60006020828403121561215757600080fd5b61106782611f8c565b80358015158114611fa357600080fd5b6000806040838503121561218357600080fd5b61218c83611f8c565b915061219a60208401612160565b90509250929050565b600080600080608085870312156121b957600080fd5b6121c285611f8c565b93506121d060208601611f8c565b925060408501359150606085013567ffffffffffffffff8111156121f357600080fd5b8501601f8101871361220457600080fd5b61221387823560208401612024565b91505092959194509250565b60006020828403121561223157600080fd5b61106782612160565b6000602080830181845280855180835260408601915060408160051b870101925083870160005b8281101561228f57603f1988860301845261227d8583516120e3565b94509285019290850190600101612261565b5092979650505050505050565b600080604083850312156122af57600080fd5b6122b883611f8c565b915061219a60208401611f8c565b600181811c908216806122da57607f821691505b602082108114156122fb57634e487b7160e01b600052602260045260246000fd5b50919050565b6020808252602d908201527f4552433732313a2063616c6c6572206973206e6f7420746f6b656e206f776e6560408201526c1c881bdc88185c1c1c9bdd9959609a1b606082015260800190565b634e487b7160e01b600052603260045260246000fd5b634e487b7160e01b600052601160045260246000fd5b6000821982111561238d5761238d612364565b500190565b600082516123a4818460208701611f08565b9190910192915050565b6000828210156123c0576123c0612364565b500390565b6000845160206123d88285838a01611f08565b8551918401916123eb8184848a01611f08565b8554920191600090600181811c908083168061240857607f831692505b85831081141561242657634e487b7160e01b85526022600452602485fd5b80801561243a576001811461244b57612478565b60ff19851688528388019550612478565b60008b81526020902060005b858110156124705781548a820152908401908801612457565b505083880195505b50939b9a5050505050505050505050565b60208082526025908201527f4552433732313a207472616e736665722066726f6d20696e636f72726563742060408201526437bbb732b960d91b606082015260800190565b60208082526032908201527f4552433732313a207472616e7366657220746f206e6f6e20455243373231526560408201527131b2b4bb32b91034b6b83632b6b2b73a32b960711b606082015260800190565b6001600160a01b038581168252841660208201526040810183905260806060820181905260009061255390830184611f34565b9695505050505050565b60006020828403121561256f57600080fd5b815161106781611ed5565b634e487b7160e01b600052603160045260246000fdfea26469706673582212208031fc19bbf026e1f8187c15359c9e092dcc15fbd037389910aecae086d2765f64736f6c634300080b0033",
  "linkReferences": {},
  "deployedLinkReferences": {}
}